{
    "_format": "hh-sol-artifact-1",
    "contractName": "Waqf",
    "contractAddress": "0xAD02d12b1DdB1C1e83F5d10a5aA4D4FaC3452ffc",
    "sourceName": "contracts/Waqf.sol",
    "abi": [
        {
            "inputs": [
                {
                    "internalType": "string",
                    "name": "_name",
                    "type": "string"
                },
                {
                    "internalType": "address",
                    "name": "_beneficiary",
                    "type": "address"
                }
            ],
            "stateMutability": "nonpayable",
            "type": "constructor"
        },
        {
            "inputs": [],
            "name": "balance",
            "outputs": [
                {
                    "internalType": "uint256",
                    "name": "",
                    "type": "uint256"
                }
            ],
            "stateMutability": "view",
            "type": "function"
        },
        {
            "inputs": [],
            "name": "beneficiary",
            "outputs": [
                {
                    "internalType": "address",
                    "name": "",
                    "type": "address"
                }
            ],
            "stateMutability": "view",
            "type": "function"
        },
        {
            "inputs": [
                {
                    "internalType": "uint256",
                    "name": "_amount",
                    "type": "uint256"
                }
            ],
            "name": "distribute",
            "outputs": [],
            "stateMutability": "nonpayable",
            "type": "function"
        },
        {
            "inputs": [],
            "name": "donate",
            "outputs": [],
            "stateMutability": "payable",
            "type": "function"
        },
        {
            "inputs": [],
            "name": "founder",
            "outputs": [
                {
                    "internalType": "address",
                    "name": "",
                    "type": "address"
                }
            ],
            "stateMutability": "view",
            "type": "function"
        },
        {
            "inputs": [],
            "name": "name",
            "outputs": [
                {
                    "internalType": "string",
                    "name": "",
                    "type": "string"
                }
            ],
            "stateMutability": "view",
            "type": "function"
        }
    ],
    "bytecode": "0x608060405234801561001057600080fd5b506040516106bb3803806106bb83398101604081905261002f916100a2565b600061003b8382610205565b5060018054336001600160a01b031991821617909155600280549091166001600160a01b0392909216919091179055506102c4565b634e487b7160e01b600052604160045260246000fd5b80516001600160a01b038116811461009d57600080fd5b919050565b600080604083850312156100b557600080fd5b82516001600160401b03808211156100cc57600080fd5b818501915085601f8301126100e057600080fd5b8151818111156100f2576100f2610070565b604051601f8201601f19908116603f0116810190838211818310171561011a5761011a610070565b8160405282815260209350888484870101111561013657600080fd5b600091505b82821015610158578482018401518183018501529083019061013b565b6000848483010152809650505050610171818601610086565b925050509250929050565b600181811c9082168061019057607f821691505b6020821081036101b057634e487b7160e01b600052602260045260246000fd5b50919050565b601f82111561020057600081815260208120601f850160051c810160208610156101dd5750805b601f850160051c820191505b818110156101fc578281556001016101e9565b5050505b505050565b81516001600160401b0381111561021e5761021e610070565b6102328161022c845461017c565b846101b6565b602080601f831160018114610267576000841561024f5750858301515b600019600386901b1c1916600185901b1785556101fc565b600085815260208120601f198616915b8281101561029657888601518255948401946001909101908401610277565b50858210156102b45787850151600019600388901b60f8161c191681555b5050505050600190811b01905550565b6103e8806102d36000396000f3fe6080604052600436106100555760003560e01c806306fdde031461005a57806338af3eed146100855780634d853ee5146100bd57806391c05b0b146100dd578063b69ef8a8146100ff578063ed88c68e14610123575b600080fd5b34801561006657600080fd5b5061006f61012b565b60405161007c91906102cf565b60405180910390f35b34801561009157600080fd5b506002546100a5906001600160a01b031681565b6040516001600160a01b03909116815260200161007c565b3480156100c957600080fd5b506001546100a5906001600160a01b031681565b3480156100e957600080fd5b506100fd6100f836600461031d565b6101b9565b005b34801561010b57600080fd5b5061011560035481565b60405190815260200161007c565b6100fd6102b6565b6000805461013890610336565b80601f016020809104026020016040519081016040528092919081815260200182805461016490610336565b80156101b15780601f10610186576101008083540402835291602001916101b1565b820191906000526020600020905b81548152906001019060200180831161019457829003601f168201915b505050505081565b6001546001600160a01b031633146102185760405162461bcd60e51b815260206004820152601b60248201527f4f6e6c7920666f756e6465722063616e2064697374726962757465000000000060448201526064015b60405180910390fd5b6003548111156102615760405162461bcd60e51b8152602060048201526014602482015273496e73756666696369656e742062616c616e636560601b604482015260640161020f565b6002546040516001600160a01b039091169082156108fc029083906000818181858888f1935050505015801561029b573d6000803e3d6000fd5b5080600360008282546102ae9190610386565b909155505050565b34600360008282546102c8919061039f565b9091555050565b600060208083528351808285015260005b818110156102fc578581018301518582016040015282016102e0565b506000604082860101526040601f19601f8301168501019250505092915050565b60006020828403121561032f57600080fd5b5035919050565b600181811c9082168061034a57607f821691505b60208210810361036a57634e487b7160e01b600052602260045260246000fd5b50919050565b634e487b7160e01b600052601160045260246000fd5b8181038181111561039957610399610370565b92915050565b808201808211156103995761039961037056fea2646970667358221220d1b276212356d28f25162b8c23bf98c24ed739f4619c15a5d06f81f5bca3ef0b64736f6c63430008130033",
    "linkReferences": {},
    "deployedLinkReferences": {}
}